:020000040800F2
:10000000000400209F020008830200088502000807
:10001000890200088D02000891020008000000001B
:100020000000000000000000000000009502000831
:10003000970200080000000099020008472000080D
:10004000BF020008BF020008BF020008BF0200088C
:10005000BF020008BF020008BF020008BF0200087C
:10006000BF020008BF020008BF020008BF0200086C
:10007000BF020008BF020008BF020008BF0200085C
:10008000BF020008BF020008BF020008BF0200084C
:10009000C7460008BF020008BF020008BF020008F0
:1000A000BF020008BF020008BF020008BF0200082C
:1000B000BF020008BF020008BF020008BF0200081C
:1000C000BF020008BF020008BF020008BF0200080C
:1000D000BF02000841260008BF0200088D26000864
:1000E000BF020008BF020008BF020008BF020008EC
:1000F000BF020008BF020008BF020008BF020008DC
:10010000BF020008BF020008BF020008BF020008CB
:1001100027270008BF020008BF020008BF0200082E
:10012000BF020008BF020008BF020008BF020008AB
:1001300000F002F800F090F80AA090E8000C824469
:100140008344AAF10107DA4501D100F085F8AFF246
:10015000090EBAE80F0013F0010F18BFFB1A43F0A5
:100160000103184788C80000A8C80000103A24BF3F
:1001700078C878C1FAD8520724BF30C830C144BF0C
:1001800004680C607047000000230024002500264E
:10019000103A28BF78C1FBD8520728BF30C148BFEA
:1001A0000B6070476E290AF04C8470290AF0AA850A
:1001B00066290CF0D08265290CF0CD8267290CF0FD
:1001C000CA826129AFF3008003681B0A28BF41F08F
:1001D000800169290AF07C8064290AF079807529F8
:1001E0000AF076806F290AF0358578290AF076853D
:1001F000E9290AF0CD84E4290AF0CA84F5290AF035
:10020000C784EF290AF03285F8290AF0758503685A
:10021000DB0928BF41F0800163290AF04E8473296D
:100220000AF05384E3290BF09A80F3290BF09F80A6
:10023000002070471FB50AF02FFE040000200021A7
:100240000BF0C2FD401C6060002000210BF0D2FDCD
:10025000E0601FBD10B510BD0BF0BBF81146FFF7F5
:10026000E9FF04F08EFB0BF08BF903B4FFF7F2FF0C
:1002700003BC0BF0CBF9000072B662B680F30888BD
:100280007047704700BFFEE700BFFEE700BFFEE714
:1002900000BFFEE7704770477047000070470B488B
:1002A00080470B4981F308880A480047FEE7FEE7CC
:1002B000FEE7FEE7FEE7FEE7FEE7FEE7FEE7FEE716
:1002C00005480649044A064B704700009D02000895
:1002D000882800203101000888200020882800207C
:1002E0008820002031490143314A1160704770B5C0
:1002F000002100230F22C4780CB32D4C246804F491
:10030000E064C4F5E064210AC1F10403CA40447802
:1003100004FA03F18478144021430901254C06783E
:10032000A155047804F01F050124AC4005786D1137
:100330004FF0E02606EB8505C5F8004109E004789A
:1003400004F01F050124AC401B4D0678761145F8DA
:10035000264070BD194A0A400243154B1B1F1A6004
:10036000704739B1124A121D12680243104B1B1D0F
:100370001A6006E00E4A121D126882430C4B1B1DC8
:100380001A607047042808D14FF0E021096941F054
:1003900004014FF0E022116107E04FF0E02109690C
:1003A00021F004014FF0E022116170470000FA05CE
:1003B0000CED00E000E400E080E100E080FFFF1FC2
:1003C00010B50446FE48844209D10121480601F0D7
:1003D00026FB00214FF0007001F021FB08E0012115
:1003E000880601F01CFB00214FF0806001F017FB34
:1003F00010BD30B5024600200023146824F002042A
:100400001460146844F00104146000E05B1C54683C
:1004100014F0010F03D1A3F57F44FF3CF6D15468DB
:1004200014F0010F01D100206CE08C79012C04D173
:10043000146844F08004146003E0146824F080041D
:100440001460CC79012C04D1146844F04004146089
:1004500003E0146824F0400414600C7A012C04D1E9
:10046000146844F02004146003E0146824F02004AD
:1004700014604C7A012C04D1146844F01004146008
:1004800003E0146824F0100414608C7A012C04D169
:10049000146844F00804146003E0146824F00804AD
:1004A0001460CC7A012C04D1146844F00404146064
:1004B00003E0146824F0040414608C78A407CD7859
:1004C00044EA05640D7944EA05444D7944EA05544B
:1004D0000D886D1E2C43D461146824F0010414604F
:1004E000002300E05B1C546814F0010F03D0A3F557
:1004F0007F44FF3CF6D1546814F0010F01D0002076
:1005000000E0012030BD10B50021837A012202FAFB
:1005100003F1AC4A126842F00102AA4B1A60A94AE0
:100520001C3212688A43A74B1C331A60027BCAB97B
:10053000A44A0C3212688A43A24B0C331A604288D8
:10054000C38842EA03439F4A4032847A42F83430F7
:100550000288838842EA03439A4A4032847A02EB53
:10056000C4025360027B012A19D1964A0C321268E8
:100570000A43944B0C331A604288038842EA0343CF
:10058000904A4032847A42F83430C288838842EA02
:1005900003438C4A4032847A02EBC4025360C27A2D
:1005A0003AB9884A121D12688A43864B1B1D1A608D
:1005B00006E0844A121D12680A43824B1B1D1A6012
:1005C000028932B97F4A143212688A437D4B143350
:1005D0001A600289012A06D17A4A143212680A4343
:1005E000784B14331A60427B012A06D1754A1C32BB
:1005F00012680A43734B1C331A60724A126822F065
:100600000102704B1A6010BD00218171C17101722D
:1006100041728172C1728170C17003210171022126
:1006200041710121018070476649096841F001016B
:10063000644A11601146096843F60E729143614A9B
:1006400011601146096841EA0021116011460968EC
:1006500021F001011160704721B1026842F480323B
:10066000026003E0026822F4803202607047E1B168
:10067000026842F0800202604FF4C272125842F4E3
:1006800080734FF4C27213504FF4CA72125842F47E
:1006900080734FF4CA7213504FF4D272125842F45E
:1006A00080734FF4D27213501BE0026822F0800274
:1006B00002604FF4C272125822F480734FF4C27277
:1006C00013504FF4CA72125822F480734FF4CA7256
:1006D00013504FF4D272125822F480734FF4D27236
:1006E0001350704710B502460020936803F08063F2
:1006F000B3F1806F00D110E0936803F00063B3F1B1
:10070000006F01D1012008E0936803F08053B3F13A
:10071000805F01D1022000E00420042879D002F596
:10072000C07303EB00131B6803F0010402F5C073F0
:1007300003EB00131C600B7A7BB94B7A0C8843EAFD
:10074000445302F5C07404EB00142468234302F5FB
:10075000C07404EB0014236010E00B7A4C6843EA89
:10076000C4034C7A234302F5C07404EB00142468DC
:10077000234302F5C07404EB001423608B7A03F06A
:100780000F038B7202F5C07303EB00135B6823F059
:100790000F0402F5C07303EB00135C6002F5C07335
:1007A00003EB00135B688C7A234302F5C07404EBFF
:1007B000001463608B7B1C064B7B44EA034403E01C
:1007C00000640040006600400B7B44EA0323CC7ABF
:1007D000234302F5C07404EB0014A3608B7C1C0659
:1007E0004B7C44EA03440B7C44EA0323CC7B234345
:1007F00002F5C07404EB0014E36002F5C07303EB70
:1008000000131B6843F0010402F5C07303EB0013EF
:100810001C6010BD10B50246002021B1012907D08F
:1008200002290FD109E09368F74C03EA04000BE0BA
:100830009368F64C03EA040006E09368F44C03EA7C
:10084000040001E0002000BF00BFF24C031BA042E7
:1008500016D007DC80B16FF08063C3180ED0022B76
:1008600018D111E0B3F5007F10D0EB4C1B1909D063
:10087000B3F5003F0ED10BE002200DE000200BE0AD
:10088000002009E0002007E0012005E0012003E04E
:10089000012001E0002000BF00BF10BD21B10129EF
:1008A00007D002290FD109E0826842F080028260FD
:1008B0000AE0826842F40042826005E0826842F405
:1008C0000002826000E000BF00BF704710B500F575
:1008D000D87303EB01131B6803F004031372137A3C
:1008E00053B900F5D87303EB01131B6840F2FF7492
:1008F00004EA5353136009E000F5D87303EB0113C6
:100900001B686FF0604404EAD303536000F5D873AA
:1009100003EB01131B6803F00203537200F5D87355
:1009200003EB01135B6803F00F03937200F5D873B8
:1009300003EB01135B681B0AD37400F5D87303EB58
:1009400001139B68D37200F5D87303EB01139B6806
:100950001C0A147300F5D87303EB01139B681C0C7D
:10096000547300F5D87303EB01139B681B0E93734C
:1009700000F5D87303EB0113DB68D37300F5D8736C
:1009800003EB0113DB681C0A147400F5D87303EB46
:100990000113DB681C0C547400F5D87303EB0113CE
:1009A000DB681B0E937421B9C36843F02003C36056
:1009B00003E0036943F02003036110BD21B9C2685D
:1009C00042F02002C26003E0026942F020020261AC
:1009D00070470246002019B9D36803F0030006E00F
:1009E000012903D1136903F0030000E000207047E0
:1009F00010B502460B4600204FF6FF71BBB91468D4
:100A000024F0020444F00104146000E0491E54681C
:100A100004F00304012C01D00029F7D1546804F03C
:100A20000304012C01D0002032E0012030E0012B32
:100A300013D1146824F00304146000E0491E5468C4
:100A400014F0030F01D00029F8D1546814F0030FFB
:100A500001D000201CE001201AE0022B17D11468FD
:100A600024F0010444F00204146000E0491E5468BC
:100A700004F00304022C01D00029F7D1546804F0DB
:100A80000304022C01D0002002E0012000E000203D
:100A900010BD014600200A6822F0010242F0020265
:100AA0000A604A6802F00302022A00D1012070475E
:100AB00001464FF6FF7200200B6823F002030B6023
:100AC00000E0521E4B6803F00203022B01D1002A02
:100AD000F7D14B6803F00203022B00D001207047CE
:100AE000014600208A6902F070007047014600202C
:100AF0008A69100E7047014600208A69C2F30740D8
:100B000070471AB143690B43436102E043698B4369
:100B10004361704710B50246002011F4700F08D0F1
:100B20009369C1F31304234201D001202DE000207A
:100B30002BE011F0807F08D05368C1F313042342E7
:100B400001D0012021E000201FE011F0006F08D04B
:100B50009368C1F31304234201D0012015E0002063
:100B600013E011F0007F08D0D368C1F313042342CF
:100B700001D0012009E0002007E01369C1F313044C
:100B8000234201D0012000E0002010BD0022234BB1
:100B9000994202D10023836111E0C1F3130211F0E5
:100BA000007F01D0C2600AE011F0806F01D00261C5
:100BB00005E011F0006F01D0826000E042607047F4
:100BC000024600200A4201D0012000E000207047C8
:100BD00070B504460D4600266069284271D0B5F50F
:100BE000807F68D01CDC082D41D006DC012D2CD084
:100BF000022D30D0042D7ED133E0102D3DD0202D9C
:100C000041D0402D77D144E00300000400030008E8
:100C100000000310000100080001FFF77000F03031
:100C2000B5F5004F61D009DCB5F5007F4AD0B5F5C8
:100C3000806F4DD0B5F5006F5DD150E0B5F5803FC8
:100C40002DD0B5F5003F56D12FE0A0685549FFF7EC
:100C5000B7FF064651E0E0680321FFF7B1FF064603
:100C60004BE0E0680821FFF7ABFF064645E0E0688F
:100C70001021FFF7A5FF06463FE020690321FFF79B
:100C80009FFF064639E020690821FFF799FF0646D5
:100C900033E020691021FFF793FF06462DE06068DE
:100CA0000821FFF78DFF064627E060681021FFF757
:100CB00087FF064621E0A0690121FFF781FF064674
:100CC0001BE01BE0A0690221FFF77AFF064614E053
:100CD000A0690421FFF774FF06460EE00BE0A0694F
:100CE0007021FFF76DFF064607E060680421FFF7FB
:100CF00067FF064601E0002600BF00E00026304600
:100D000070BDB1F5007F3AD00FDC202928D006DC79
:100D100001291CD004291DD0082940D11DE04029FB
:100D200021D0B1F5807F3AD126E0B1F5004F31D026
:100D300006DCB1F5806F25D0B1F5006F2FD124E02E
:100D4000B1F5803F12D0B1F5003F28D111E0154A2E
:100D5000826025E00822C26022E01022C2601FE00B
:100D6000082202611CE01022026119E008224260A0
:100D700016E01022426013E00422426010E00422D8
:100D800042600DE0042242600AE0002282610422F7
:100D9000426005E0002282610422426000E000BF60
:100DA00000BF70470101010001460020FE4A1068A3
:100DB00000F03800084310607047FB49096821F0D3
:100DC0000801F94A11601146096801431160704732
:100DD000F549096821F01001F34A116011460968CC
:100DE000014311607047F148EF494860F04848609E
:100DF0007047EE48EC494860ED4848607047EA4863
:100E0000006940F08000E84908617047E6480069E1
:100E100040F08000E449086170470420E249C96855
:100E200011F0010F01D001200EE0DF49C96811F077
:100E3000040F01D0022007E0DB49C96811F0100F50
:100E400001D0032000E00420704700B502460423CF
:100E5000FFF7E3FF034603E0FFF7DFFF0346521E01
:100E6000012B01D1002AF7D102B90523184600BD94
:100E700030B5044604254FF43020FFF7E6FF054661
:100E8000042D17D1C848006940F00200C649086126
:100E900008464461006940F0400008614FF430208A
:100EA000FFF7D3FF0546C048006941F6FD710840D1
:100EB000BD490861284630BD10B504244FF43020E8
:100EC000FFF7C3FF0446042C16D1B748006940F071
:100ED0000400B54908610846006940F04000086117
:100EE0004FF43020FFF7B1FF0446AF48006941F6E8
:100EF000FB710840AC490861204610BD00B50246B0
:100F00000423FFF78AFF034603E0FFF786FF03464B
:100F1000521E012B01D1002AF7D102B90523184630
:100F200000BD10B504244FF43020FFF7E7FF04465E
:100F3000042C16D19C48006940F004009A490861CD
:100F40000846006940F0400008614FF43020FFF788
:100F5000D5FF04469448006941F6FB710840924968
:100F60000861204610BD00208F49C96911F0020FA9
:100F700001D0012000E00020704730B5A5250424F1
:100F8000FFF7F1FF00B100254FF43020FFF75DFFC0
:100F90000446042C3AD18548834988608448886097
:100FA0000846006940F0200008610846006940F0EA
:100FB000400008614FF43020FFF747FF0446042C3F
:100FC0001BD17948006941F6DF7108407649086114
:100FD0000846006940F01000086176480580E0028C
:100FE000FFF733FF0446052C10D06F48006941F627
:100FF000EF7108406C49086108E0052C06D06A488A
:10100000006941F6EF71084067490861204630BD2C
:1010100078B506460C46042500200090E802FFF74C
:1010200014FF0546042D24D15F48006940F00100FB
:101030005D4908613480E802FFF707FF0546042D8B
:1010400010D1B01C0090200C00990880E802FFF736
:10105000FCFE05465448006941F6FE7108405249BD
:10106000086106E05048006941F6FE7108404E49AB
:101070000861284678BD70B504460D460426F00286
:10108000FFF7E3FE0646042E11D14748006940F001
:101090000100454908612580F002FFF7D6FE0646AB
:1010A0004148006941F6FE7108403F4908613046F9
:1010B00070BD70B505460E460424E002FFF7C5FE7C
:1010C0000446042C17D1394837498860384888606D
:1010D0000846006940F0100008612E80E002FFF72A
:1010E000B4FE0446052C06D02F48006941F6EF7186
:1010F00008402D490861204670BD2DE9F0430446A3
:101100004FF6FF763746B046B1460425E443E6B2D3
:10111000C4F30727C4F307484FEA1469E802FFF74E
:1011200094FE0546042D49D120481F498860204877
:1011300088600846006940F010000861FF2E06D064
:101140001C4808300680E802FFF77FFE0546042DA4
:1011500008D1FF2F06D017480A300780E802FFF7B2
:1011600074FE0546042D0AD1B8F1FF0F07D01148CF
:101170000C30A0F80080E802FFF767FE0546042D5A
:101180000AD1B9F1FF0F07D00A480E30A0F800903D
:10119000E802FFF75AFE0546052D0FD00248006908
:1011A00041F6EF71084007E0002002402301674547
:1011B000AB89EFCD00F8FF1F664908612846BDE8FE
:1011C000F08330B5054604244FF43020FFF73DFE90
:1011D0000446042C41D160485E4988605F488860BD
:1011E0000846006940F0200008610846006940F0A8
:1011F000400008614FF43020FFF727FE0446042C1E
:1012000022D15448006941F6DF7108405149086114
:101210000846006940F0100008611DB100205049E7
:10122000088002E0A5204E4908804FF43020FFF7E7
:101230000CFE0446052C10D04648006941F6EF71BB
:1012400008404449086108E0052C06D0414800697F
:1012500041F6DF7108403F490861204630BDF0B5D6
:1012600005460E46174604243B483A4988603B48E9
:101270008860E002FFF7E9FD0446042C19D13548E7
:10128000006940F010003349086147F0F80030432E
:1012900028433349891C0880E002FFF7D6FD044645
:1012A000052C06D02B48006941F6EF71084029490A
:1012B00008612046F0BD2748C0698008704725486E
:1012C000006A704700202349096811F0200F01D0FF
:1012D000012000E00020704729B11E4A1269024334
:1012E0001C4B1A6104E01B4A12698243194B1A61B4
:1012F000704701460020012908D1164AD26912F030
:10130000010F01D0012008E0002006E0114AD26858
:101310000A4201D0012000E0002070470D49C8605A
:10132000704704200B49C96811F0010F01D001205A
:101330000EE00849C96811F0040F01D0022007E04F
:101340000449C96811F0100F01D0032000E0042007
:10135000704700000020024023016745AB89EFCDB4
:1013600000F8FF1F10B50446CA48844208D1012185
:10137000042000F047FB0021042000F043FB46E07E
:10138000C548844208D10121082000F03BFB002120
:10139000082000F037FB3AE0C048844208D1012120
:1013A000102000F02FFB0021102000F02BFB2EE07E
:1013B000BB48844208D10121202000F023FB0021FA
:1013C000202000F01FFB22E0B648844208D1012112
:1013D000402000F017FB0021402000F013FB16E036
:1013E000B148844208D10121802000F00BFB00218C
:1013F000802000F007FB0AE0AC48844207D10121BD
:10140000801500F0FFFA0021A01500F0FBFA10BDD6
:1014100010B50121084600F0F5FA0021012000F086
:10142000F1FA10BD2DE9F04102460025002600200A
:1014300000230024002791F803C00CF00F0591F859
:1014400003C01CF0100F03D091F802C04CEA050550
:1014500091F800C0BCF1000F31D0146800202BE0DF
:101460004FF0010C0CFA00F3B1F800C00CEA0306CF
:101470009E4220D183004FF00F0C0CFA03F7BC43BF
:1014800005FA03FC4CEA040491F803C0BCF1280FF0
:1014900006D14FF0010C0CFA00FCC2F814C00AE0AF
:1014A00091F803C0BCF1480F05D14FF0010C0CFAC4
:1014B00000FCC2F810C0401C0828D1D31460B1F859
:1014C00000C0BCF1FF0F34DD546800202EE000F1B5
:1014D000080C4FF0010808FA0CF3B1F800C00CEA50
:1014E00003069E4221D183004FF00F0C0CFA03F744
:1014F000BC4305FA03FC4CEA040491F803C0BCF1B8
:10150000280F05D100F1080C08FA0CF8C2F8148075
:1015100091F803C0BCF1480F07D100F1080C4FF05F
:10152000010808FA0CF8C2F81080401C0828CED335
:101530005460BDE8F0814FF6FF7101800221817097
:101540000421C17070470246002093680B4201D00D
:10155000012000E0002070470146886880B2704793
:1015600002460020D3680B4201D0012000E0002099
:1015700070470146C86880B2704701617047416199
:1015800070470AB1016100E041617047C160704776
:101590004FF480320A43826181618261826982698B
:1015A000704702460020424B18684FF6807318407F
:1015B00040EA021008433E4B186070473D49C8613D
:1015C0007047F0B50A46002300240021002500F0F2
:1015D0000046B6F1004F02D1354EF16901E0344EBC
:1015E0007168C0F3034583B200F44016B6F5401F9E
:1015F00008D121F070612E4E766826F070662C4F6F
:101600007E6012E000F48016B6F5801F06D1032636
:1016100006FA05F4A14341F0706106E0460D36017B
:1016200003FA06F6B14341F0706122B1460D36016E
:1016300003FA06F6314300F00046B6F1004F02D13E
:101640001B4EF16101E01A4E7160F0BD30B5002211
:101650008B071C0F0F2303FA04F2154B08338C1071
:1016600053F824309343124C08348D1044F825303D
:1016700023468C1053F824308C07240F00FA04F40E
:1016800023430B4C08348D1044F8253030BD0A49F3
:101690000860704700080140000C01400010014044
:1016A0000014014000180140001C014000200140CE
:1016B0000000014000002042DC0020420E4908608A
:1016C00070470D49486070470B49886070474AF67B
:1016D000AA200949086070474CF6CC4006490860CA
:1016E000704701460020044AD2680A4201D0012016
:1016F00000E000207047000000300040DD48006836
:1017000040F00100DB49086008464068DA490840BB
:10171000D849486008460068D8490840D54908605B
:101720000846006820F4802008600846406820F4DD
:10173000FE0048604FF41F0088607047CD4909687B
:1017400021F48031CB4A11601146096821F48021CF
:101750001160B0F5803F03D0B0F5802F0ED106E0C8
:10176000C449096841F48031C24A116007E0C149A7
:10177000096841F4A021BF4A116000E000BF00BF2A
:10178000704710B501460022002300204A11012AAB
:1017900002D1B84C236806E0022A02D1B54C236A74
:1017A00001E0B44C636A01F01F02012494401C4222
:1017B00001D0012000E0002010BD38B500200090CD
:1017C0000024002500BF3120FFF7DBFF054600980D
:1017D000401C00900098B0F5A06F01D0002DF2D011
:1017E0003120FFF7CEFF08B1012400E0002420469D
:1017F00038BD014600209F4A106820F0F80040EAFA
:10180000C100106070479E49086070470246002082
:10181000984B586820F47C1042EA01031843954B1A
:101820005860704796490866704701460020914A03
:10183000506820F003000843506070478D484068AE
:1018400000F00C007047014600208A4A506820F0E2
:10185000F00008435060704701460020854A5068F8
:1018600020F4E06008435060704701460020814A40
:10187000506820F4605040EAC1005060704729B1C0
:101880007C4A527A02437B4B5A7204E0794A527A7C
:101890008243784B5A7270477A4908607047014614
:1018A0000020744A506820F440400843506070475C
:1018B0000021754A11706F4A82F82010012802D069
:1018C000042808D103E001216F4A117004E00521CA
:1018D0006D4A117000E000BF00BF70476B4908609F
:1018E00070476449096A0143624A11627047674957
:1018F00044390860704730B50021002200240023DD
:101900005C4D6D6805F00C0121B1042905D0082952
:1019100023D105E05E4D056022E05D4D05601FE0CE
:10192000544D6D6805F47012524D6D6805F48034A5
:10193000022505EB92421CB9564D554305600BE05C
:101940004C4D6D6815F4003F03D0524D5543056072
:1019500002E04F4D5543056002E04D4D056000BF6C
:1019600000BF444D6D6805F0F00109094A4D6B5CFC
:101970000568DD4045603F4D6D6805F4E061090A8A
:10198000454D6B5C4568DD4085603A4D6D6805F4FA
:101990006051C90A404D6B5C4568DD40C560354DFE
:1019A0006D6805F44041890B3C4D6B5CC568B5FB27
:1019B000F3F5056130BD29B12E4A526902432D4B22
:1019C0005A6104E02B4A526982432A4B5A6170479C
:1019D00029B1284A92690243264B9A6104E0254ABC
:1019E00092698243234B9A61704729B1214AD26997
:1019F0000243204BDA6104E01E4AD26982431D4B48
:101A0000DA61704729B11B4AD2680243194BDA6088
:101A100004E0184AD2688243164BDA60704729B155
:101A2000144A12690243134B1A6104E0114A126905
:101A30008243104B1A61704714494039086070475F
:101A40000F49C86470470B49C87170470948406A1C
:101A500040F0807007494862704701460020054AFF
:101A600092680A4201D0012000E00020704701493D
:101A700088727047001002400000FFF8FFFFF6FE7A
:101A800000004242D80042422010024080044242FC
:101A900000127A0000093D00000000201000002024
:101AA00010B50446FB48844209D101218803FFF7A1
:101AB000A9FF00214FF48040FFF7A4FF32E0F64871
:101AC000844209D101214804FFF7A9FF00214FF406
:101AD0000030FFF7A4FF25E0F048844209D101213E
:101AE0008804FFF79CFF00214FF48020FFF797FF49
:101AF00018E0EB48844209D10121C804FFF78FFFA9
:101B000000214FF40020FFF78AFF0BE0E5488442F4
:101B100008D101210805FFF782FF00214FF4801052
:101B2000FFF77DFF10BD2DE9F04786B005460E4654
:101B30000024A24600BFA1460027B08900B100BF23
:101B40002F462C8A4CF6FF700440F08804432C8208
:101B5000AC894EF6F3100440B0883189084371898E
:101B600008430443AC81AC8A4FF6FF400440B0897F
:101B70000443AC8201A8FFF7BEFEC648874202D1EB
:101B8000DDF810A001E0DDF80CA0A88910F4004FEA
:101B900008D00AEBCA0000EB0A1031684900B0FB1C
:101BA000F1F807E00AEBCA0000EB0A10316889007F
:101BB000B0FBF1F86420B8FBF0F0040120096421C7
:101BC00001FB1089A88910F4004F08D0322000EBE7
:101BD000C900B0FBF1F000F00700044308E0322038
:101BE00000EB09106421B0FBF1F000F00F0004439A
:101BF0002C8106B0BDE8F0874FF41651016000213A
:101C00008180C18001810C21418100218181704747
:101C100010B502460020108A4FF2FF0318400B88CF
:101C20004C8823438C882343CC8823431843108259
:101C300010BD0021018041808180C180704721B1A9
:101C4000828942F40052828104E082894DF6FF735A
:101C50001A4082817047F0B5034600240026002513
:101C60000020A1F510676A3F00D100BF1846C1F3FC
:101C7000421401F01F06012707FA06F5012C01D1D5
:101C80000C3004E0022C01D1103000E014301AB105
:101C900007682F43076002E00768AF430760F0BDA5
:101CA0001AB1838A0B43838202E0838A8B43838247
:101CB0007047028A4FF6F0731A400282028A0A4382
:101CC0000282704782894FF2FF731A4082818289B3
:101CD0000A438281704721B1828942F002028281E7
:101CE00004E082894FF6FD731A4082817047028AB0
:101CF0004FF6DF731A400282028A0A43028270475B
:101D000021B1028A42F48042028204E0028A4BF648
:101D1000FF731A4002827047C1F308028280704745
:101D200001468888C0F308007047818941F00101AD
:101D300081817047028BD2B20283028B42EA012278
:101D400002837047028B02F47F420283028B0A43B4
:101D50000283704721B1828A42F02002828204E02D
:101D6000828A4FF6DF731A408282704721B1828ADD
:101D700042F01002828204E0828A4FF6EF731A402A
:101D80008282704721B1828A42F00802828204E096
:101D9000828A4FF6F7731A408282704721B1828996
:101DA00042F40042828103E08289C2F30E02828102
:101DB000704721B1828A42F40062828204E0828A02
:101DC0004FF2FF731A4082827047828A4FF6FB738C
:101DD0001A408282828A0A438282704721B1828AB3
:101DE00042F00202828204E0828A4FF6FD731A40BA
:101DF0008282704702460020B1F5007F00D100BF0B
:101E000013880B4201D0012000E00020704701F44C
:101E10000072B2F5007F00D100BFCA430280704754
:101E200070B502460024002300250020A1F51066AD
:101E30006A3E00D100BFC1F3421501F01F03012625
:101E400006FA03F3012D02D19689334006E0022DF4
:101E500002D1168A334001E0968A33400C120126E3
:101E600006FA04F41688344013B10CB1012000E0E6
:101E7000002070BD10B500220023A1F510646A3C5B
:101E800000D100BF0A1201249440A3B2DC430480B5
:101E900010BD0000003801400044004000480040F0
:101EA000004C00400050004010B545F25550FFF77F
:101EB00005FC0420FFF705FC40F25370FFF704FC1B
:101EC000FFF705FCFFF708FC10BD10B5FFF716FC87
:101ED0004FF48030FFF732FCFFF76FFC0446012C13
:101EE00024D11020FEF774FF0220FEF75DFF0020D2
:101EF000FFF7A9FC0020FFF7B8FCA002FFF7ACFC3D
:101F00004FF4E0112004FFF781FC0120FFF78AFC69
:101F100000BF3920FFF735FC0028FAD00220FFF778
:101F200084FC00BFFFF78AFC0828FBD110BD10B568
:101F300000214FF00060FEF70DFA10BD10B54FF410
:101F4000A060FEF7CFF9FFF7C0FFFFF7F0FF012118
:101F50000D20FFF73DFD10BD10B56FF00400FEF73A
:101F600011FA4FF0E020006940F002004FF0E0214C
:101F7000086142F2283048610846006940F00100DB
:101F8000086110BD017939B9016829B10168491E9C
:101F9000016001D101210171704710B5002408E0F2
:101FA0000020394941F8340001EBC4010871601C7C
:101FB000C4B2042CF4DBFFF7CFFF10BD70B50446AC
:101FC0000D46042C00DB70BD012000F059F82E48AE
:101FD00040F8345000202C4901EBC401087100F096
:101FE0004FF800BFEFE70146042901DB00207047EE
:101FF000254800EBC1000079012806D10020224AC3
:1020000002EBC10210710120F1E70020EFE710B5EB
:102010000446012C00D80224012000F031F81A48AF
:10202000046000201849087100F02AF804E01648FE
:102030000079012800D100E0F9E700BF10BD0020C1
:1020400012490868704710B5002406E00E4901EBFC
:10205000C400FFF797FF601CC4B2042CF6DB0C48E9
:102060000088401C80B20A490880B0F57A7F06DB00
:102070000020088005480068401C0449086010BD25
:1020800080F31088704700004800002018000020EE
:102090001400002000B585B0012144F20400FFF7D0
:1020A00097FC4FF40070ADF8100003208DF812007B
:1020B00018208DF8130004A9F948FFF7B3F94FF47D
:1020C0008060ADF8100004208DF8130004A9F448D6
:1020D000FFF7A8F94FF4E13000900020ADF80400BC
:1020E000ADF80600ADF80800ADF80C000C20ADF816
:1020F0000A006946EB48FFF716FD012240F2255120
:10210000E848FFF7A8FD0121E648FFF798FD4021C8
:10211000E448FFF77CFE05B000BD08B54FF4A060B1
:10212000FEF7E0F825208DF8000002208DF8010070
:1021300003208DF8020001208DF803006846FEF7A9
:10214000D6F808BD00B585B001210920FFF740FC95
:1021500001218804FFF749FC4FF48060ADF81000BE
:1021600018208DF8130003208DF8120004A9CE4822
:10217000FFF758F94FF40060ADF8100004208DF817
:10218000130004A9C848FFF74DF94FF4165000900A
:102190000020ADF80400ADF80600ADF80800ADF879
:1021A0000C000C20ADF80A006946C048FFF7BBFCE4
:1021B000012240F22551BD48FFF74DFD0121BB48EA
:1021C000FFF73DFD4021B948FFF721FE05B000BDF6
:1021D00008B54FF4A060FEF785F827208DF80000C1
:1021E00002208DF8010003208DF8020001208DF8F7
:1021F00003006846FEF77BF808BD00B585B00121F5
:102200001120FFF7E5FB0121C804FFF7EEFB4FF4B7
:102210008060ADF8100018208DF8130003208DF8B1
:10222000120004A9A248FFF7FDF84FF40060ADF8D2
:10223000100004208DF8130004A99D48FFF7F2F860
:102240004FF4E13000900020ADF80400ADF8060036
:10225000ADF80800ADF80C000C20ADF80A00694696
:102260009448FFF760FC012240F225519148FFF7A6
:10227000F2FC01218F48FFF7E2FC05B000BD08B574
:102280004FF4A060FEF72EF834208DF800000220F5
:102290008DF8010003208DF8020001208DF8030065
:1022A0006846FEF724F808BD8348844908604FF467
:1022B000167088800020C8800881C86070470FB4FD
:1022C00038B505A800907E48009A049907F0AEFF43
:1022D000002000907A4808F0EAF985B200240DE069
:1022E00000BF40216F48FFF785FD0028F9D07448F2
:1022F000015D6C48FFF710FD601C84B2AC42EFDB5F
:1023000038BC5DF814FB70B505460E466D48007884
:10231000012808D100206B4908704FF48071624891
:10232000FFF72DF906E001206649087001025E48BA
:10233000FFF723F980215C48FFF721F900240CE026
:1023400000BF40215748FFF755FD0028F9D0295D0F
:102350005448FFF7E1FC601C84B2B442F0DB8021FA
:102360005148FFF70AF970BD0FB438B505A80090C1
:102370005548009A049907F059FF002000905248F0
:1023800008F095F985B200240DE000BF40214748D0
:10239000FFF730FD0028F9D04B48015D4348FFF7B7
:1023A000BBFC601C84B2AC42EFDB38BC5DF814FBB4
:1023B0000FB438B545480078F0B105A800904448FE
:1023C000009A049907F032FF00200090404808F07E
:1023D0006EF985B200240DE000BF40213548FFF7BB
:1023E00009FD0028F9D03A48015D3248FFF794FC16
:1023F000601C84B2AC42EFDB38BC5DF814FB70B5F6
:1024000005462E4C012000F099F9E688002000F0E6
:1024100095F92089B04201D1002070BD2189206842
:10242000405C2870012000F089F92089401C80B2AE
:102430002081A188884201DB00202081002000F05B
:102440007DF90120E9E7F8B506460D460020009029
:1024500000246846FFF7D3FF012801D00020F8BD13
:102460009DF800101B4802880088401C194B1880FA
:102470001948815418460088062836D1062217A12B
:10248000154808F033F978B300201249088015493F
:1024900008804FF41671104808F0DAF90020DEE7E2
:1024A0000008014000380140000C01400048004095
:1024B00000100140004C004070070020C8090020B7
:1024C0006800002026000020C00200201C00002020
:1024D000180500201E000020D809002062616979DB
:1024E0007565000020000020FFE796480088082856
:1024F0001FD19548C4794FF6FF7000EA0424924832
:102500008079204484B2B4F5167F10DD00208D4917
:1025100008808E4908804FF416718B4808F098F9AE
:1025200022468B498BA0FFF743FF002097E787489F
:10253000048084480088B0F5167F11DD00208149B1
:102540000880824908804FF416717F4808F080F9AE
:102550007C4802887E4987A0FFF72AFF00207EE79B
:102560007848008879490988884228D175480088C8
:1025700020280FDA002073490880744908804FF43E
:102580001671714808F064F9714984A0FFF710FFD3
:10259000002064E76D48008828806C4802886A49FA
:1025A000304608F0EEF80020664908806749088048
:1025B0004FF41671644808F04BF901204FE70020F2
:1025C0004DE770B505460E4600240CE000BF4021E3
:1025D0007B48FFF70FFC0028F9D0295D7848FFF70A
:1025E0009BFB601C84B2B442F0DB70BD10B50446A6
:1025F000E0882189884203D1E06808B1E06880471B
:102600006F48FFF78DFBE28821688854E088401C02
:1026100080B2E080A188884201DB0020E08010BD0C
:1026200010B5FFF741FEFFF735FDFFF78BFDFFF714
:10263000E4FDFFF772FDFFF7CBFDFFF720FE10BDB5
:1026400010B5002440F225515E48FFF7E9FBE0B1E8
:102650005C48FFF765FBC4B25B48008810F4004F8C
:1026600013D159480088B0F5167F08DA564801881A
:102670000088401C544A10805448445405E0524895
:10268000008840F400405049088010BD10B5002477
:1026900040F225514E48FFF7C3FB002842D04C487A
:1026A000FFF73EFBC4B24B48008810F4004F39D10D
:1026B00048480088B0F5167F08DA46480188008847
:1026C000401C444A10804448445405E04148008876
:1026D00040F400403F4908803E480088062821D148
:1026E00006223EA13C4808F001F8D8B14FF49661AB
:1026F000394808F0ADF8002036490880394800789C
:1027000040B94FF400713848FEF737FF01203549D2
:10271000087007E04FF400713348FEF730FF0020E7
:102720003049087010BD10B540F225512448FFF71C
:1027300077FB10B12D48FFF759FF10BD80F31088CB
:10274000704700001E000020D80900202000002053
:102750005AC7000825732D2D2D3E206672616D65C8
:102760005F6C656E202564203E20313032340D0AC6
:102770000000000025732D2D2D3E205F75736172C2
:1027800074345F6672616D655F696E64657820257B
:1027900064203E20313032340D0A000025732D2D87
:1027A0002D3E205F7573617274345F6672616D6572
:1027B0005F696E646578203C2032360D0A000000A7
:1027C000004C00400038014022000020300C002066
:1027D0000048004024000020880E002024474E526C
:1027E0004D43000027000020000C0140C8090020D4
:1027F00010B504460020B14908804FF41671B04866
:1028000008F004F82146AFA0FFF759FDAFA0FFF78D
:10281000CFFD2146ABA0FFF7CBFD10BD70B505463F
:102820000E4600240020A54908804FF41671A448E4
:1028300007F0ECFF31462846FFF765FDA3A0FFF740
:10284000B7FD00BF05E0295DA9A0FFF7B1FD601C41
:1028500084B2B442F7DBA8A0FFF7AAFD70BD70B543
:10286000044600259548008840F4004093490880BC
:1028700000200988C1F30E01914A505421461046A8
:1028800007F07BFE05469DA0FFF792FD8C498DA0C9
:10289000FFF78EFD284670BD70B504460D46A04872
:1028A000047029460220FFF789FB70BD70B5022035
:1028B000FFF799FB00B970BD9948007810286FD2D6
:1028C000DFE800F008121B2B33424B656F7F8A99BB
:1028D000AAB4C4CC20219348FEF751FE4FF47A717C
:1028E0000120FFF7D9FFCFE08FA0FFF781FF4FF462
:1028F0007A710220FFF7D0FFC6E08CA0FFF7AFFF90
:1029000028B14FF47A710320FFF7C6FF04E04FF4BB
:102910007A710120FFF7C0FFB6E085A0FFF768FFDE
:1029200064210420FFF7B8FFAEE080A0FFF797FF17
:1029300028B14FF47A710520FFF7AEFF03E0642160
:102940000120FFF7A9FF9FE07B48FFF751FF4FF4FD
:102950007A610620FFF7A0FF96E078A0FFF77FFFDF
:1029600028B14FF47A710920FFF796FF0EE076A0A8
:10297000FFF775FF28B14FF47A710920FFF78CFF3C
:1029800004E04FF47A710720FFF786FF7CE072A025
:10299000FFF72EFF4FF47A710820FFF77DFF73E0F9
:1029A0006CE066A0FFF75BFF28B14FF47A71092055
:1029B000FFF772FF04E04FF47A710520FFF76CFF18
:1029C00062E001206849087068A0FFF711FFC82184
:1029D0000A20FFF761FF57E067A0FFF740FF20B133
:1029E000C8210B20FFF758FF04E04FF4FA710E20C6
:1029F000FFF752FF48E006F05CFE06F0C3FE044617
:102A000006F08FFE05462146FFF708FF40F6FC0161
:102A10000C20FFF741FF37E001215848FFF7FEFE89
:102A200040F698010D20FFF737FF2DE054A0FFF787
:102A300016FF28B14FF4FA710920FFF72DFF04E0CB
:102A40004FF4FA710720FFF727FF1DE04EA0FFF7B4
:102A5000CFFEC8210F20FFF71FFF15E04DA0FFF7A5
:102A6000FEFE28B14FF4FA610520FFF715FF04E0E0
:102A70004FF47A710120FFF70FFF05E04FF47A71F0
:102A80000120FFF709FF00BF00BF00BF13E708B533
:102A900001211020FEF79CFF2020ADF8000010203F
:102AA0008DF8030003208DF8020069461D48FEF7EB
:102AB000B9FC20211B48FEF760FD08BD2200002064
:102AC000300C002025730D0A000000002D2D2D2D47
:102AD0002D2D2D2D2D2D2D2D2D53454E442D2D2DB0
:102AE0002D2D2D2D2D2D2D2D2D2D0D0A000000000D
:102AF00025303258200000000D0A00003D3D3D3DCC
:102B00003D3D3D3D3D3D3D3D3D524543563D3D3DB9
:102B10003D3D3D3D3D3D3D3D3D3D0D0A000000003C
:102B20002800002000100140415400004F4B0000DD
:102B3000415445300000000068130020434F4E4EC2
:102B4000454354204F4B0000414C524541445920CD
:102B5000434F4E4E4543540041542B434950535428
:102B600041545553000000002A00002041542B43DB
:102B7000495053454E4400003E000000290000200B
:102B800053454E44204F4B0041542B434950434C36
:102B90004F534500434C4F5345204F4B000000001E
:102BA00008B501210820FEF713FF4020ADF8000012
:102BB00010208DF8030003208DF8020069461F489D
:102BC000FEF730FC40211D48FEF7D9FC8020ADF80F
:102BD000000010208DF8030003208DF802006946E4
:102BE0001648FEF71FFC80211448FEF7C6FC4FF480
:102BF0008070ADF8000010208DF8030003208DF8E0
:102C0000020069460D48FEF70DFC4FF480710B4839
:102C1000FEF7B3FC4FF40070ADF8000010208DF803
:102C2000030003208DF8020069460448FEF7FAFB12
:102C30004FF400710148FEF7A0FC08BD000C0140F4
:102C40002DE9F04F99B000260027B046B146B246B4
:102C5000B3460320FFF7C7F910B919B0BDE8F08FEC
:102C60004248008840F4004040490880002009881C
:102C7000C1F30E013E4A505464213E4807F0C6FDA0
:102C80003C493B4807F0C0F80646002E5AD00AA837
:102C90000DA910AA14ABCDE90032CDE9021018AB92
:102CA00004AA07A9334807F0D6F801284AD118A882
:102CB00007F024F9074614A807F033F9804610A856
:102CC00007F02FF981460DA807F09EF982460AA861
:102CD00007F0F7F9834604A807F01EFA054607A88F
:102CE00007F00EFA0446012080F3108800BF224846
:102CF00007702248C0F800802148C0F800902148A1
:102D0000C0F800A02048C0F800B020480460204867
:102D10000560002080F3108800BF1D4800681B4933
:102D20000968194A1268174B1B68CDE90032CDE9D2
:102D3000021013480368114802680F48017815A073
:102D4000FFF736FB0B4919A0FFF732FB00200749BC
:102D500008804FF49661064807F058FD4FF4FA6179
:102D60000320FFF72BF900BF77E7000024000020C5
:102D7000880E00209A1300202C0000203000002034
:102D800034000020380000203C00002040000020DB
:102D90004400002025642C25642C25642C25642CFB
:102DA00025642C25642C25640D0A000025730D0A6A
:102DB0000000000000B589B001210420FEF708FEE4
:102DC00001214806FEF711FE4FF48050ADF82000B7
:102DD00003208DF8220018208DF8230008A9FE4852
:102DE000FEF720FB4FF40060ADF8200048208DF87E
:102DF000230008A9F848FEF715FB00208DF81A00FB
:102E00008DF81B008DF81C0001208DF81D0000209E
:102E10008DF81E008DF81F008DF816008DF8170034
:102E200007208DF8180006208DF819000920ADF84C
:102E3000140005A9E948FDF7DCFA00208DF80E0022
:102E40008DF80F0001208DF810000020ADF804006F
:102E5000ADF80600ADF80800ADF80A00ADF80C00BA
:102E600001208DF8110001A8FDF74DFB0122022180
:102E7000DA48FDF746FE14208DF8000001208DF899
:102E8000010000208DF8020001208DF80300684643
:102E9000FDF72DFA5021D24807F0B8FC5421D14853
:102EA00007F0B4FC002009B000BD70B50446002551
:102EB0000026CD49CDA0FFF77BFA00BF07E004F163
:102EC0000B00415DCBA0FFF773FA681CC5B2082D5B
:102ED000F5DBC9A0FFF76CFA002506E004F10B0052
:102EE000405D304486B2681CC5B2072DF6DBF6B2F1
:102EF000A07CB04206D0A37C3246BB49BFA0FFF7FE
:102F000057FA70BDE07A20B1012814D0022835D1DB
:102F10001FE01121BD4807F079FC207BBB490870F8
:102F2000607B4870A07B8870E07BC870207C087153
:102F3000607C487123E0207BB4498871607BC87154
:102F4000A07B0872E07B4872207C8872607CC8722B
:102F500015E0207BAD490873607B4873A07B8873C4
:102F6000E07BC873207C08741121A94807F04EFC4F
:102F70001122A649A64807F004FC00E000BF00BFEC
:102F800000BFBEE770B505460024A24997A0FFF731
:102F90000FFA00BF0BE005F10B00005D90490855EA
:102FA0000846015D93A0FFF703FA601CC4B2062C2B
:102FB000F1DB91A0FFF7FCF970BD70B50546002468
:102FC00095498AA0FFF7F4F900BF0CE005F10B006A
:102FD000015D834AA01D11541046015D85A0FFF7D5
:102FE000E7F9601CC4B2022CF0DB83A0FFF7E0F924
:102FF00070BD70B50546002488497CA0FFF7D8F95C
:1030000000BF0BE005F10B00015D7548083001556C
:10301000015D78A0FFF7CCF9601CC4B2082CF1DB8D
:1030200075A0FFF7C5F970BD70B5054600247C4951
:103030006EA0FFF7BDF900BF0BE005F10B00015DCD
:10304000674810300155015D6AA0FFF7B1F9601CB7
:10305000C4B2082CF1DB68A0FFF7AAF970BD70B507
:10306000054600246F4961A0FFF7A2F900BF0BE0FD
:1030700005F10B00015D5A4818300155015D5DA056
:10308000FFF796F9601CC4B2082CF1DB5AA0FFF7D9
:103090008FF970BD70B505460024634953A0FFF752
:1030A00087F900BF0BE005F10B00015D4C482030B3
:1030B0000155015D4FA0FFF77BF9601CC4B2082CDD
:1030C000F1DB4DA0FFF774F970BD70B50546002423
:1030D000564946A0FFF76CF900BF0BE005F10B0065
:1030E000015D3F4828300155015D42A0FFF760F9BE
:1030F000601CC4B2082CF1DB3FA0FFF759F970BD8A
:1031000070B5054600244A4938A0FFF751F900BFC1
:103110000BE005F10B00015D314830300155015DD8
:1031200034A0FFF745F9601CC4B2082CF1DB32A0D3
:10313000FFF73EF970BD70B5054600243D492BA050
:10314000FFF736F900BF0BE005F10B00015D2448E5
:1031500038300155015D27A0FFF72AF9601CC4B281
:10316000082CF1DB24A0FFF723F970BD70B50546EC
:10317000002431491DA0FFF71BF900BF0BE005F14A
:103180000B00015D164840300155015D19A0FFF7A5
:103190000FF9601CC4B2082CF1DB17A0FFF708F987
:1031A00070BD70B505460024244910A0FFF700F952
:1031B00000BF0BE005F10B00015D094848300155E7
:1031C000015D0CA0FFF7F4F8601CC4B2082CF1DB21
:1031D00009A0FFF7EDF870BD000801400064004051
:1031E00020140020701400206DC7000825730D0AFC
:1031F00000000000255820000D0A000025733A2524
:103200005820213D2025580D0A000000FE13002003
:103210000F14002081C7000895C70008AAC700083E
:10322000C2C70008D6C70008EDC7000806C80008D6
:103230001DC8000837C8000852C8000869C800083F
:103240000146002000BF06E001F10B02125CFA4BC0
:103250001A54421CD0B20728F6DB70470146002002
:1032600000BF07E001F10B02135CF34AD21D1354B7
:10327000421CD0B20428F5DB70470146002000BF95
:1032800007E001F10B02135CEB4A0B321354421CB2
:10329000D0B20828F5DB70470146002000BF07E0E8
:1032A00001F10B02135CE44A13321354421CD0B2F6
:1032B0000828F5DB70470146002000BF07E001F158
:1032C0000B02135CDC4A1B321354421CD0B201289F
:1032D000F5DB70470146002000BF07E001F10B025B
:1032E000135CD54A1C321354421CD0B20828F5DBBB
:1032F00070470146002000BF07E001F10B02135C9C
:10330000CD4A24321354421CD0B20428F5DB704756
:103310000146002000BF07E001F10B02135CC64A22
:1033200028321354421CD0B20828F5DB70470146FE
:10333000002000BF07E001F10B02135CBE4A3032EF
:103340001354421CD0B20828F5DB70470146002018
:1033500000BF07E001F10B02135CB74A3832135487
:10336000421CD0B20528F5DB70470146002000BFA3
:1033700007E001F10B02135CAF4A3D321354421CCB
:10338000D0B20428F5DB70470146002000BF07E0FB
:1033900001F10B02135CA84A41321354421CD0B213
:1033A0000828F5DB70470146002000BF07E001F167
:1033B0000B02135CA04A49321354421CD0B20628B7
:1033C000F5DB70470146002000BF07E001F10B026A
:1033D000135C994A4F321354421CD0B20528F5DBD6
:1033E0007047C17A954A1170017B5170417B917091
:1033F000817BD170C17B1171417C5171817C917154
:103400007047C17A8D4AD171027B8C490A72427B26
:103410004A72827B8A72C27BCA72027C0A73827C85
:103420004A7370470146002000BF07E001F10B021C
:10343000135C824A0E321354421CD0B20628F5DBCC
:1034400070470146002000BF07E001F10B02135C4A
:103450007A4A14321354421CD0B20728F5DB704765
:10346000C17A764AD176027B74490A77427B4A77E1
:10347000827B8A77027CCA77427C81F82020827C1A
:1034800081F821207047417B6C4A82F82210027C2F
:103490006A4981F823207047417B684A82F82410EA
:1034A000827B664981F8252070470146002000BFD5
:1034B00007E001F10B02135C604A26321354421CF0
:1034C000D0B20728F5DB70470146002000BF07E0B7
:1034D00001F10B02135C594A2D321354421CD0B235
:1034E0000628F5DB7047C17A544A82F83310427BD4
:1034F000524981F83420827B81F83520C27B81F8E3
:10350000362070470146002000BF07E001F10B02A2
:10351000135C4A4A37321354421CD0B20428F5DBFC
:103520007047C17B454A82F83B10027C434981F8D1
:103530003C207047C17A424A1170017B5170417B37
:103540009170817BD170C17B1171017C5171417C83
:103550009171817CD1717047C17A394A1172027BB5
:1035600037494A72427B8A72827BCA72C27B0A7373
:10357000027C4A73427C8A73827CCA737047C17A28
:103580002F4A1174027B2E494A74427B8A74827BD3
:10359000CA74C27B0A75027C4A75427C8A75827C39
:1035A000CA757047C17A264A1176027B24494A7649
:1035B000427B8A76827BCA76C27B0A77027C4A7714
:1035C000427C8A77827CCA777047C17A1C4A82F82B
:1035D0002010027B1A4981F82120427B81F82220A9
:1035E000827B81F82320C27B81F82420027C81F831
:1035F0002520427C81F82620827C81F82720704794
:10360000C17A0F4A82F82810027B0D4981F82920DF
:10361000427B81F82A20827B81F82B20C27B81F8B3
:103620002C20027C81F82D20427C81F82E20827C87
:1036300081F82F207047000070140020C41400206F
:1036400001150020C17AF74A82F83010027BF54953
:1036500081F83120427B81F83220827B81F833204F
:10366000C27B81F83420027C81F83520427C81F8CD
:103670003620827C81F837207047C17AE94A82F887
:103680003810027BE74981F83920427B81F83A20E3
:10369000827B81F83B20C27B81F83C20027C81F850
:1036A0003D20427C81F83E20827C81F83F2070479B
:1036B000C17ADC4A82F84010027BDA4981F8412065
:1036C000427B81F84220827B81F84320C27B81F8D3
:1036D0004420027C81F84520427C81F84620827C8F
:1036E00081F847207047C17ACE4A82F84810027BA1
:1036F000CC4981F84920427B81F84A20827B81F8BD
:103700004B20C27B81F84C20027C81F84D20427C0A
:1037100081F84E20827C81F84F2070470146C87A9C
:10372000C14A1070087B5070487B9070887BD070C5
:10373000C87B1071087C5071487C9071887CD07176
:1037400070470146C87AB84A10720A7BB64842727E
:103750004A7B82728A7BC272CA7B02730A7C427382
:103760004A7C82738A7C0830C27170470146C87AED
:10377000AD4A10740A7BAC4842744A7B82748A7BDF
:10378000C274CA7B02750A7C42754A7C82758A7C47
:103790001030C27170470146C87AA34A10760A7B7E
:1037A000A14842764A7B82768A7BC276CA7B0277C0
:1037B0000A7C42774A7C82778A7C1830C2717047D3
:1037C0000146C87A984A82F820000A7B964880F819
:1037D00021204A7B80F822208A7B80F82320CA7B24
:1037E00080F824200A7C80F825204A7C80F8262056
:1037F0008A7C2030C27170470146C87A8A4A82F8B2
:1038000028000A7B884880F829204A7B80F82A20F3
:103810008A7B80F82B20CA7B80F82C200A7C80F8D9
:103820002D204A7C80F82E208A7C2830C271704777
:103830000146C87A7C4A82F830000A7B7A4880F8D0
:1038400031204A7B80F832208A7B80F83320CA7B83
:1038500080F834200A7C80F835204A7C80F83620B5
:103860008A7C3030C27170470146C87A6E4A82F84D
:1038700038000A7B6C4880F839204A7B80F83A206F
:103880008A7B80F83B20CA7B80F83C200A7C80F849
:103890003D204A7C80F83E208A7C3830C2717047D7
:1038A0000146C87A604A82F840000A7B5E4880F888
:1038B00041204A7B80F842208A7B80F84320CA7BE3
:1038C00080F844200A7C80F845204A7C80F8462015
:1038D0008A7C4030C27170470146C87A524A82F8E9
:1038E00048000A7B504880F849204A7B80F84A20EB
:1038F0008A7B80F84B20CA7B80F84C200A7C80F8B9
:103900004D204A7C80F84E208A7C4830C271704736
:103910000146C87A454A1070087B5070487B907009
:10392000887BD070C87B1071087C5071487C907186
:10393000887CD07170470146C87A3C4A10720A7B75
:103940003A4842724A7B82728A7BC272CA7B027395
:103950000A7C42734A7C82738A7C0830C271704749
:103960000146C87A314A10740A7B304842744A7B57
:1039700082748A7BC274CA7B02750A7C42754A7C57
:1039800082758A7C1030C27170470146C87A274A16
:1039900010760A7B254842764A7B82768A7BC276FD
:1039A000CA7B02770A7C42774A7C82778A7C18300D
:1039B000C27170470146C87A1C4A82F820000A7B0F
:1039C0001A4880F821204A7B80F822208A7B80F8E0
:1039D0002320CA7B80F824200A7C80F825204A7C9A
:1039E00080F826208A7C2030C27170470146C87A50
:1039F0000E4A82F828000A7B0C4880F829204A7B6E
:103A000080F82A208A7B80F82B20CA7B80F82C2023
:103A10000A7C80F82D204A7C80F82E208A7C283071
:103A2000C27170470115002061150020C1150020EA
:103A30000146C87AF94A82F830000A7BF74880F8D4
:103A400031204A7B80F832208A7B80F83320CA7B81
:103A500080F834200A7C80F835204A7C80F83620B3
:103A60008A7C3030C27170470146C87AEB4A82F8CE
:103A700038000A7BE94880F839204A7B80F83A20F0
:103A80008A7B80F83B20CA7B80F83C200A7C80F847
:103A90003D204A7C80F83E208A7C3830C2717047D5
:103AA0000146C87ADD4A82F840000A7BDB4880F88C
:103AB00041204A7B80F842208A7B80F84320CA7BE1
:103AC00080F844200A7C80F845204A7C80F8462013
:103AD0008A7C4030C27170470146C87ACF4A82F86A
:103AE00048000A7BCD4880F849204A7B80F84A206C
:103AF0008A7B80F84B20CA7B80F84C200A7C80F8B7
:103B00004D204A7C80F84E208A7C4830C271704734
:103B10000146C87AC24A1070087B5070487B90708A
:103B2000887BD070C87B1071087C5071487C907184
:103B3000887CD07170470146C87AB94A10720A7BF6
:103B4000B74842724A7B82728A7BC272CA7B027316
:103B50000A7C42734A7C82738A7C0830C271704747
:103B60000146C87AAE4A10740A7BAD4842744A7B5B
:103B700082748A7BC274CA7B02750A7C42754A7C55
:103B800082758A7C1030C27170470146C87AA44A97
:103B900010760A7BA24842764A7B82768A7BC2767E
:103BA000CA7B02770A7C42774A7C82778A7C18300B
:103BB000C27170470146C87A994A82F820000A7B90
:103BC000974880F821204A7B80F822208A7B80F861
:103BD0002320CA7B80F824200A7C80F825204A7C98
:103BE00080F826208A7C2030C27170470146C87A4E
:103BF0008B4A82F828000A7B894880F829204A7B72
:103C000080F82A208A7B80F82B20CA7B80F82C2021
:103C10000A7C80F82D204A7C80F82E208A7C28306F
:103C2000C27170470146C87A7D4A82F830000A7B2B
:103C30007B4880F831204A7B80F832208A7B80F8EC
:103C40003320CA7B80F834200A7C80F835204A7CF7
:103C500080F836208A7C3030C27170470146C87ABD
:103C60006F4A82F838000A7B6D4880F839204A7B19
:103C700080F83A208A7B80F83B20CA7B80F83C2081
:103C80000A7C80F83D204A7C80F83E208A7C3830CF
:103C9000C27170470146C87A614A82F840000A7BC7
:103CA0005F4880F841204A7B80F842208A7B80F878
:103CB0004320CA7B80F844200A7C80F845204A7C57
:103CC00080F846208A7C4030C27170470146C87A2D
:103CD000534A82F848000A7B514880F849204A7BC1
:103CE00080F84A208A7B80F84B20CA7B80F84C20E1
:103CF0000A7C80F84D204A7C80F84E208A7C48302F
:103D0000C27170470146C87A454A82F850000A7B62
:103D1000434880F851204A7B80F852208A7B80F803
:103D20005320CA7B80F854200A7C80F855204A7CB6
:103D300080F856208A7C5030C27170470146C87A9C
:103D4000374A82F858000A7B354880F859204A7B68
:103D500080F85A208A7B80F85B20CA7B80F85C2040
:103D60000A7C80F85D204A7C80F85E208A7C58308E
:103D7000C27170470146C87A294A82F860000A7BFE
:103D8000274880F861204A7B80F862208A7B80F88F
:103D90006320CA7B80F864200A7C80F865204A7C16
:103DA00080F866208A7C6030C27170470146C87A0C
:103DB0001B4A82F868000A7B194880F869204A7B10
:103DC00080F86A208A7B80F86B20CA7B80F86C20A0
:103DD0000A7C80F86D204A7C80F86E208A7C6830EE
:103DE000C27170470146C87A0D4A82F870000A7B9A
:103DF0000B4880F871204A7B80F872208A7B80F81B
:103E00007320CA7B80F874200A7C80F875204A7C75
:103E100080F876208A7C7030C2717047C11500200E
:103E2000211600200146C87AFB4A82F878000A7BF6
:103E3000F94880F879204A7B80F87A208A7B80F8DC
:103E40007B20CA7B80F87C200A7C80F87D204A7C1D
:103E500080F87E208A7C7830C27170470146C87A2B
:103E6000EE4A1070087B5070487B9070887BD07051
:103E7000C87B1071087C5071487C9071887CD0712F
:103E800070470146C87AE54A10720A7BE3484272DD
:103E90004A7B82728A7BC272CA7B02730A7C42733B
:103EA0004A7C82738A7C0830C27170470146C87AA6
:103EB000DA4A10740A7BD94842744A7B82748A7B3E
:103EC000C274CA7B02750A7C42754A7C82758A7C00
:103ED0001030C27170470146C87AD04A10760A7B0A
:103EE000CE4842764A7B82768A7BC276CA7B02774C
:103EF0000A7C42774A7C82778A7C1830C27170478C
:103F00000146C87AC54A82F820000A7BC34880F877
:103F100021204A7B80F822208A7B80F82320CA7BDC
:103F200080F824200A7C80F825204A7C80F826200E
:103F30008A7C2030C27170470146C87AB74A82F83D
:103F400028000A7BB54880F829204A7B80F82A207F
:103F50008A7B80F82B20CA7B80F82C200A7C80F892
:103F60002D204A7C80F82E208A7C2830C271704730
:103F70000146C87AA94A82F830000A7BA74880F82F
:103F800031204A7B80F832208A7B80F83320CA7B3C
:103F900080F834200A7C80F835204A7C80F836206E
:103FA0008A7C3030C27170470146C87A9B4A82F8D9
:103FB00038000A7B994880F839204A7B80F83A20FB
:103FC0008A7B80F83B20CA7B80F83C200A7C80F802
:103FD0003D204A7C80F83E208A7C3830C271704790
:103FE0000146C87A8D4A82F840000A7B8B4880F8E7
:103FF00041204A7B80F842208A7B80F84320CA7B9C
:1040000080F844200A7C80F845204A7C80F84620CD
:104010008A7C4030C27170470146C87A7F4A82F874
:1040200048000A7B7D4880F849204A7B80F84A2076
:104030008A7B80F84B20CA7B80F84C200A7C80F871
:104040004D204A7C80F84E208A7C4830C2717047EF
:104050000146C87A714A82F850000A7B6F4880F89E
:1040600051204A7B80F852208A7B80F85320CA7BFB
:1040700080F854200A7C80F855204A7C80F856202D
:104080008A7C5030C271704710B50446644861683C
:104090000A1A814277D077DC624AA1EB0200914292
:1040A00073D04ADC604AA1EB020091426ED024DC5E
:1040B0005E4AA1EB0200914269D00DDC5C48081811
:1040C00079D05C49401877D05B49401875D0A0F58D
:1040D000B0400C3872D1B5E1A0F5284035386ED02B
:1040E000A0F50850A8386BD0A0F57C40D73868D030
:1040F000A0F537404938EDD1D6E2504A811A9042B6
:104100007ED00DDCA0F5807049387AD0B0F5803FC4
:1041100078D04B49401876D0B0F5803FDAD19BE19A
:10412000B1F5803F70D0B1F5003F6ED0B1F5801F82
:104130006CD0B1F5881FCDD1A3E1424A811A9042DB
:1041400065D025DC404AA0EB0201904260D00DDC36
:10415000A0F57A40CA385CD0B0F5807F5AD0B0F56F
:10416000306F58D039494018B4D160E23848081847
:104170007CD0B0F5807F7AD0B0F5007F78D035491B
:104180004018A7D1ABE10BE129E0DCE10BE255E1FE
:10419000314A881A91426CD014DCB1F5803F69D065
:1041A0002E48081867D0A0F537401C3872D0B0F5FB
:1041B000807F8FD108E1AEE1F9E1A8E180E232E150
:1041C00038E16DE2B0F5807F72D0B0F5606F70D0ED
:1041D000B0F5706F6ED0B0F5885F8CD1F0E02048FC
:1041E000111A824267D067DC1E49A2EB01008A42A5
:1041F00079D062DC1C49A2EB01008A4274D03BE01A
:104200002EE155E258E223E12EE132E135E13CE1D5
:10421000A5E1D4E1D7E1DAE121160020A9160020BA
:10422000030703180606F00CA7A6090CF328060CD2
:104230005759FFF70200FFFEC0D5FDFC4C2A1700BE
:10424000FDD6F8FF988418031EFB0400DDE8FEFF8E
:104250001C01F6FF5F59FEFC637FF807B93908F8C7
:10426000210AF2000218EE00F0109D00B7E1BAE159
:10427000BDE1D4E00DE19EE10DDCF74810187AD0E5
:10428000B0F5803F78D0B0F5003F76D0F3494018C4
:104290008FD154E190E0F24940186FD0F1494018B5
:1042A0006DD0F14940186BD0B0F5D05F95D152E197
:1042B0007EE071E0AFE056E126E04FF2EE42811A77
:1042C000904271D011DCB0F5807F6ED0A0F56C50BB
:1042D000EE386BD0A0F54850123868D0A0F50540F4
:1042E000EE38D5D187E176E09DE1B1F5807F6FD0E2
:1042F000A1F56E40F1386CD0A0F59B30333869D011
:10430000B0F5807FC4D166E1D84A881A91426ED058
:1043100020DCD74AA1EB0200914269D00CDCB1F558
:10432000885F73D0B1F5085F71D0D24808186FD09C
:10433000D1494018ACD12EE1B0F5807F69D0B0F5FD
:10434000007F67D0B0F5407F71D0A0F580504B382A
:104350009ED174E1B0F5A06F6AD012DCB0F5807F19
:1043600067D0B0F5007F71D0B0F5407F6FD0B0F569
:10437000806F8DD18CE14AE14DE150E10FE102E126
:10438000E5E0A0F59A40F43833D0BC4940186FD02E
:10439000B0F1807F8AD1ACE02046FEF786FD90E147
:1043A0002046FEF7EFFD8CE129E11CE0ABE016E0D2
:1043B0002046FEF702FE84E12046FEF71AFE80E169
:1043C0002046FEF731FE7CE12046FEF748FE78E10C
:1043D00019E130E1DBE02046FEF75CFE71E12046AA
:1043E000FEF773FE6DE12046FEF78AFE69E12AE1E1
:1043F00053E02046FEF79FFE2046FEF7E3FF2046EF
:10440000FFF780F82046FFF767FA5AE1AFE0B2E025
:10441000B5E049E052E02046FEF7A8FE51E1204613
:10442000FEF7BFFE4DE12046FEF70AFF49E14FE0EF
:1044300032E10CE12046FEF711FF42E12046FEF793
:104440001CFF3EE12046FEF727FF3AE118E11BE1A1
:104450002046FEF730FF34E12046FEF73BFF30E117
:104460002046FEF746FF2CE12046FEF751FF28E1EB
:104470005BE02046FEF75BFF23E12046FEF766FF88
:104480001FE12046FEF771FF1BE12046FEF77CFF8F
:1044900017E12046FEF787FF13E12046FEF7A1FF54
:1044A0002046FFF74EF90CE12046FEF7AAFF204612
:1044B000FFF75CF92046FFF753FA02E12046FEF7CA
:1044C000B1FF2046FFF767F92046FFF75EFAF8E0F4
:1044D0002046FEF7B6FF2046FFF772F9F1E02046CE
:1044E000FEF7BEFF2046FFF787F92046FFF77EFA6A
:1044F000E7E02046FEF7C7FF2046FFF799F9204680
:10450000FFF796FADDE02046FEF7C6FFD9E0204629
:10451000FEF7CBFFD5E02046FEF7D6FF2046FFF79B
:10452000A3F92046FFF7A0FACBE02046FEF7DBFF19
:104530002046FFF7B5F92046FFF7B2FAC1E0204662
:10454000FEF7EFFFBDE02046FEF7F4FFB9E020469E
:10455000FFF702F8B5E02046FFF711F8B1E020467A
:10456000FFF720F8ADE02046FFF72FF8A9E020463E
:10457000FFF746F8A5E02046FFF764F8A1E02046E3
:10458000FFF77BF89DE02046FFF792F899E0204680
:10459000FFF7A9F895E02046FFF7C0F891E0204624
:1045A000FFF7B6F98DE02046FFF7C5F989E0204610
:1045B000FFF700FA85E02046FFF78EFA81E02046FB
:1045C000FFF7A6FA7DE02046FFF7B5FA79E020462E
:1045D000FFF7C6FA75E02046FFF7D7FA71E02046EC
:1045E000FFF7E8FA6DE02046FFF700FB69E02046A0
:1045F000FFF718FB65E02046FFF730FB61E020463F
:10460000FFF748FB5DE02046FFF760FB59E02046DE
:10461000FFF778FB55E02046FFF790FB51E020467E
:10462000FFF7A8FB4DE02046FFF7C0FB49E020461E
:10463000FFF7D8FB45E02046FFF7F4FB41E02046BA
:10464000FFF70CFC3DE02046FFF71BFC39E020465D
:10465000FFF72CFC35E0000010EFE4FFAACDE1FFEE
:104660004D72BBFF6681F9FF3A0AFBFFCDF10900ED
:1046700082E00900009CF7FF7E84FEFF3CAAFEFC5E
:104680002046FFF728FC1CE02046FFF739FC18E025
:104690002046FFF751FC14E02046FFF769FC10E0CC
:1046A0002046FFF781FC0CE02046FFF799FC08E06C
:1046B0002046FFF7B1FC04E02046FFF7C9FC00E00C
:1046C00000BF00BF10BD00B585B01421684606F0DC
:1046D000BFF86A4600210848FCF7F8F8012080F38B
:1046E000108800BF6846FFF7CFFC002080F31088D9
:1046F00000BF05B000BD00000064004010B50346D7
:10470000002003E01C5C0C54441CA0B29042F9DB76
:1047100010BD2DE9F04706460F461446B0464FF04F
:1047200000093D4600BF08E040462968FCF770FCE0
:1047300008F104082D1D09F10109E11704EB91713D
:10474000B9EBA10FF0D3E11704EB91718910B4EB31
:10475000810131D0E11704EB91718910A4EB810143
:10476000012908D12868A0F5807028604046296892
:10477000FCF74EFC20E0E11704EB91718910A4EBEB
:104780008101022908D12868A0F5803028604046C0
:104790002968FCF73DFC0FE0E11704EB91718910EB
:1047A000A4EB8101032907D12868A0F1807028605B
:1047B00040462968FCF72CFCBDE8F08770B504463C
:1047C00065682E462068FBF759FDB04770BD2DE99E
:1047D000F04105460E460024042700BF0BE04FF4CD
:1047E000806101FB0450FCF743FB074600BF042F28
:1047F000FDD1601CC4B2B442F1DBBDE8F08110B55C
:10480000FCF7F1FA0120FCF789FD2020FCF786FD7A
:104810000420FCF783FD1020FCF780FD10BD000094
:1048200010B58CB0002430216B4805F0EFFF10224A
:104830006AA16948801D05F0B2FE06226BA1664898
:10484000163005F0ACFE0120634908774C2048770C
:104850004121614881773921C177422180F82010B8
:10486000582180F82110352180F82210422180F84B
:104870002310342180F82410332180F8251046219C
:1048800080F82610312180F827104A2180F828105E
:10489000462180F829105A2180F82A10342180F806
:1048A0002B10322180F82C10372180F82D10302168
:1048B000684605F0CDFF302269464E48FFF71EFFDF
:1048C00006224DA1684605F0C6FE28BB2E2168468B
:1048D00005F041FCBDF82E1088421DD110220DF1CB
:1048E00006013D48801D05F04CFF3B48DDF81610E1
:1048F000C0F81610BDF81A1041839DF81C00364907
:10490000087711220DF11D0133481D3005F039FFE4
:104910003BA0FDF74DFD02E03FA0FDF749FD44A09F
:10492000FDF746FD2C49891D4EA0FDF741FD2A49A2
:10493000163154A0FDF73CFD2748017F59A0FDF733
:1049400037FD60A0FDF734FD002407E022481D304C
:10495000015D5EA0FDF72CFD601CC4B2112CF5DBDF
:104960005BA0FDF725FD3221674805F04FFF1A4B8C
:104970001633A3F1100265A1634805F069FC0CB081
:1049800010BDFDF70AFBFDF7D9FAFDF78DFAFDF72B
:1049900047FEFEF705F9FEF77AF8FEF70BFAFFF788
:1049A0003FFF4FF47A710120FDF708FB41F270716F
:1049B0000220FDF703FB41F288310320FDF7FEFAE8
:1049C00000BFFCF784FE05F004F9FDF76FFFFEF76A
:1049D00037F905F0DFF9F4E7381300203133392EC9
:1049E0003139362E3136342E3134370032333437C4
:1049F0000000000000FC000865766964656F000037
:104A00007265616420636F6E6669672073756363A6
:104A10006573730D0A0000007265616420636F6E38
:104A2000666967206661696C7572650D0A00000031
:104A30002D2D2D2D2D2D2D2D2D2D2D2D2D2D2D2DA6
:104A40002D2D2D2D2D2D2D2D2D2D2D2D2D2D2D2D96
:104A50002D2D2D2D2D2D2D2D2D2D2D2D2D2D2D2D86
:104A60000D0A0000675F6361725F636F6E6669675E
:104A70002E6970616464725F7374723D25730D0AF0
:104A800000000000675F6361725F636F6E66696755
:104A90002E6970706F72745F7374723D25730D0AA6
:104AA00000000000675F6361725F636F6E66696735
:104AB0002E70726F746F636F6C5F747970653D25D3
:104AC000640D0A0056494E3A0000000025630000BC
:104AD0000D0A2D2D2D2D2D2D2D2D2D2D2D2D2D2D49
:104AE0002D2D2D2D2D2D2D2D2D2D2D2D2D2D2D2DF6
:104AF0002D2D2D2D2D2D2D2D2D2D2D2D2D2D2D2DE6
:104B00002D2D0D0A000000006813002041542B4396
:104B1000495053544152543D22544350222C222593
:104B200073222C2225732200FEB500247F21FE482B
:104B300005F06CFE00BF00222146641CFA48425476
:104B4000FA48427F2146641CF7484254F748827F66
:104B50002146641CF4484254F448C27F2146641C38
:104B6000F1484254F14890F820202146641CEE4858
:104B70004254EE4890F821202146641CEA484254F1
:104B8000EA4890F822202146641CE7484254007805
:104B9000E54949780844E44989780844E249C978F4
:104BA0000844E14909790844DF4949790844DE4964
:104BB00089790844C2B22046611CCCB2DA490A5451
:104BC00001222046611CCCB2D7490A54D74890F83C
:104BD00023202046611CCCB2D3490A54D34890F814
:104BE00024202046611CCCB2CF490A54CF4890F80B
:104BF00025202046611CCCB2CB490A54CB4890F802
:104C000026202046611CCCB2C7490A54C74890F8F8
:104C100027202046611CCCB2C3490A54C34890F8EF
:104C200028202046611CCCB2BF490A540846007AAD
:104C3000497A0844BC49897A0844BB49C97A08447E
:104C4000B949097B0844B849497B0844B649897B7E
:104C50000844C2B22046611CCCB2B3490A540222B5
:104C60002046611CCCB2B0490A54B04890F82920C3
:104C70002046611CCCB2AC490A54AC4890F82A20BA
:104C80002046611CCCB2A8490A54A84890F82B20B1
:104C90002046611CCCB2A4490A54A44890F82C20A8
:104CA0002046611CCCB2A0490A54A04890F82D209F
:104CB0002046611CCCB29C490A5400222046611C4B
:104CC000CCB299490A540846007C497C084496496C
:104CD000897C08449449C97C08449349097D084467
:104CE0009149497D08449049897D0844C2B22046D3
:104CF000611CCCB28C490A548D4800686421B0FB19
:104D0000F1F201FB12022046611CCCB286490A5422
:104D1000874800686421B0FBF1F0B0FBF1F201FBC1
:104D200012022046611CCCB27F490A5480480068B8
:104D300042F21071B0FBF1F06421B0FBF1F201FB23
:104D400012022046611CCCB277490A5479480068A7
:104D500042F21071B0FBF1F00830C2B22046611C83
:104D6000CCB271490A54734800686421B0FBF1F079
:104D7000B0FBF1F201FB12022046611CCCB26A4981
:104D80000A546C4800686421B0FBF1F201FB120286
:104D90002046611CCCB264490A546548006864210D
:104DA000B0FBF1F201FB12022046611CCCB25E495D
:104DB0000A545F4800686421B0FBF1F0B0FBF1F2E7
:104DC00001FB12022046611CCCB257490A545848D4
:104DD000006842F21071B0FBF1F06421B0FBF1F217
:104DE00001FB12022046611CCCB24F490A545148C3
:104DF000006842F21071B0FBF1F00830C5B2182023
:104E000095FBF0F100FB1150C5B22046611CCCB2FD
:104E100045490D54474800686421B0FBF1F0B0FBF0
:104E2000F1F201FB12063C2096FBF0F100FB116051
:104E3000C6B22046611CCCB23B490E543D480068C6
:104E40006421B0FBF1F201FB12073C2097FBF0F16B
:104E500000FB1170C7B22046611CCCB232490F541E
:104E60000846807F497F304A127FCDE900210290B9
:104E70002D48C37E827E417E2FA0FDF799FA3348EC
:104E800002782046611CCCB227490A543048006899
:104E9000020E2046611CCCB223490A542C480068FB
:104EA000C0F307422046611CCCB21F490A5428486F
:104EB0000088C0F307222046611CCCB21A490A546C
:104EC000234802782046611CCCB217490A54214875
:104ED0000068020E2046611CCCB213490A541D48DA
:104EE0000068C0F307422046611CCCB20E490A5448
:104EF00018480088C0F307222046611CCCB20A493A
:104F00000A54144802782046611CCCB206490A545F
:104F100011480088C0F307222046611CCCB2024928
:104F20000A540D48027819E00917002038130020B0
:104F300040000020440000202564202564202564D2
:104F40002025642025642025640D0A002C00002003
:104F50003400002030000020380000202046611C72
:104F6000CCB2FE490A54FE480088C0F3072220460E
:104F7000611CCCB2F9490A54F94802782046611CF8
:104F8000CCB2F6490A5400222046611CCCB2F34947
:104F90000A542046611CCCB2F0490A542046611CD8
:104FA000CCB2EE490A542046611CCCB2EB490A54FB
:104FB000EC4802782046611CCCB2E8490A54E94822
:104FC00042782046611CCCB2E4490A54E548827814
:104FD0002046611CCCB2E1490A54E248C27820461E
:104FE000611CCCB2DD490A54DE4802792046611CBE
:104FF000CCB2DA490A54DB4842792046611CCCB273
:10500000D6490A54D74882792046611CCCB2D3498C
:105010000A54D448C2792046611CCCB2CF490A5404
:10502000D048027A2046611CCCB2CC490A54CD4803
:10503000427A2046611CCCB2C8490A54C948827AD7
:105040002046611CCCB2C5490A54C648C27A2046E3
:10505000611CCCB2C1490A54C248027B2046611C83
:10506000CCB2BE490A54BF48427B2046611CCCB238
:10507000BA490A54BB48827B2046611CCCB2B7496E
:105080000A54B848C27B2046611CCCB2B3490A54CA
:10509000B448027C2046611CCCB2B0490A54B148E5
:1050A000427C2046611CCCB2AC490A54AD48827C9B
:1050B0002046611CCCB2A9490A54AA48C27C2046A9
:1050C000611CCCB2A5490A54A648027D2046611C49
:1050D000CCB2A2490A54A348427D2046611CCCB2FE
:1050E0009E490A54FF222046611CCCB29B490A54B7
:1050F0002046611CCCB299490A549A48027E204647
:10510000611CCCB295490A549648427E2046611CE7
:10511000CCB292490A549348827E2046611CCCB29C
:105120008E490A548F48C27E2046611CCCB28B49FE
:105130000A548C48027F2046611CCCB287490A542D
:105140008848427F2046611CCCB284490A54854875
:10515000827F2046611CCCB280490A548148C27FBC
:105160002046611CCCB27D490A547E4890F820202C
:105170002046611CCCB279490A547A4890F8212023
:105180002046611CCCB275490A54764890F822201A
:105190002046611CCCB271490A54724890F8232011
:1051A0002046611CCCB26D490A546E4890F8242008
:1051B0002046611CCCB269490A546A4890F82520FF
:1051C0002046611CCCB265490A54664890F82620F6
:1051D0002046611CCCB261490A54624890F82720ED
:1051E0002046611CCCB25D490A54FF222046611C56
:1051F000CCB25A490A545B4890F829202046611CD9
:10520000CCB256490A54574890F82A202046611CCF
:10521000CCB252490A54FF222046611CCCB24F49FD
:105220000A542046611CCCB24C490A542046611CE9
:10523000CCB24A490A542046611CCCB247490A54B0
:105240002046611CCCB245490A54464890F83020AB
:105250002046611CCCB241490A54424890F83120A2
:105260002046611CCCB23D490A543E4890F8322099
:105270002046611CCCB239490A543A4890F8332090
:105280002046611CCCB235490A54364890F8342087
:105290002046611CCCB231490A54324890F835207E
:1052A0002046611CCCB22D490A542E4890F8362075
:1052B0002046611CCCB229490A54FF222046611CB9
:1052C000CCB226490A54274890F838202046611C61
:1052D000CCB222490A54234890F839202046611C58
:1052E000CCB21E490A541F4890F83A202046611C4F
:1052F000CCB21A490A541B4890F83B202046611C46
:10530000CCB216490A54174890F83C202046611C3C
:10531000CCB212490A54134890F83D202046611C33
:10532000CCB20E490A540F4890F83E202046611C2A
:10533000CCB20A490A540B4890F83F202046611C21
:10534000CCB206490A54074890F840202046611C18
:10535000CCB202490A54034806E0000009170020B5
:105360003C0000202014002090F841202046611CC1
:10537000CCB2FE490A54FE4890F842202046611CF7
:10538000CCB2FA490A54FA4890F843202046611CEE
:10539000CCB2F6490A54F64890F844202046611CE5
:1053A000CCB2F2490A54F24890F845202046611CDC
:1053B000CCB2EE490A54EE4890F846202046611CD3
:1053C000CCB2EA490A54EA4890F847202046611CCA
:1053D000CCB2E6490A54FF222046611CCCB2E34914
:1053E0000A542046611CCCB2E0490A54E04890F8C7
:1053F0004A202046611CCCB2DC490A54DC4890F8B3
:105400004B202046611CCCB2D8490A54D84890F8A9
:105410004C202046611CCCB2D4490A54D44890F8A0
:105420004D202046611CCCB2D0490A54FF222046B0
:10543000611CCCB2CD490A542046611CCCB2CB4988
:105440000A54FEBDFEB500248321CA4805F0DEF9EA
:1054500000BF00222146641CC6484254C648427F11
:105460002146641CC3484254C348827F2146641CC1
:10547000C0484254C048C27F2146641CBD484254C3
:10548000BD4890F820202146641CBA484254BA48CE
:1054900090F821202146641CB6484254B64890F842
:1054A00022202146641CB34842540078B14949780F
:1054B0000844B04989780844AE49C9780844AD49E0
:1054C00009790844AB4949790844AA4989790844CB
:1054D000C2B22046611CCCB2A6490A540122204621
:1054E000611CCCB2A3490A54A34890F8232020465B
:1054F000611CCCB29F490A549F4890F82420204652
:10550000611CCCB29B490A549B4890F82520204648
:10551000611CCCB297490A54974890F8262020463F
:10552000611CCCB293490A54934890F82720204636
:10553000611CCCB28F490A548F4890F8282020462D
:10554000611CCCB28B490A540846007A497A084457
:105550008849897A08448749C97A08448549097B7A
:1055600008448449497B08448249897B0844C2B283
:105570002046611CCCB27F490A5402222046611C9D
:10558000CCB27C490A547C4890F829202046611C02
:10559000CCB278490A54784890F82A202046611CF9
:1055A000CCB274490A54744890F82B202046611CF0
:1055B000CCB270490A54704890F82C202046611CE7
:1055C000CCB26C490A546C4890F82D202046611CDE
:1055D000CCB268490A5400222046611CCCB265490D
:1055E0000A540846007C497C08446249897C084486
:1055F0006049C97C08445F49097D08445D49497D8B
:1056000008445C49897D0844C2B22046611CCCB282
:1056100058490A54594800686421B0FBF1F201FB73
:1056200012022046611CCCB252490A545348006809
:105630006421B0FBF1F0B0FBF1F201FB1202204655
:10564000611CCCB24B490A544C48006842F21071BC
:10565000B0FBF1F06421B0FBF1F201FB1202204635
:10566000611CCCB243490A544548006842F21071AB
:10567000B0FBF1F00830C5B2182095FBF0F100FB4B
:105680001150C5B22046611CCCB23A490D543C4879
:1056900000686421B0FBF1F0B0FBF1F201FB1206EF
:1056A0003C2096FBF0F100FB1160C6B22046611C65
:1056B000CCB230490E54324800686421B0FBF1F29C
:1056C00001FB12073C2097FBF0F100FB1170C7B201
:1056D0002046611CCCB227490F540846807F497F81
:1056E000244A127FCDE9002102902248C37E827EA7
:1056F000417EAFF2BC70FCF75BFE22480278204688
:10570000611CCCB21B490A541F480068020E204697
:10571000611CCCB217490A541B480068C0F3074209
:105720002046611CCCB213490A5417480088C0F3C4
:1057300007222046611CCCB20E490A541248027856
:105740002046611CCCB20B490A5410480068020E76
:105750002046611CCCB207490A540C480068C0F3CB
:1057600007422046611CCCB2024911E00917002013
:10577000201400208817002038130020400000204B
:10578000440000202C0000203400002030000020C5
:105790000A54FE480088C0F307222046611CCCB2A0
:1057A000FB490A54F94802782046611CCCB2F849FA
:1057B0000A54F8480088C0F307222046611CCCB286
:1057C000F3490A54F34802782046611CCCB2F049F0
:1057D0000A54F1480088C0F307222046611CCCB26D
:1057E000EB490A54EC4802782046611CCCB2E849E7
:1057F0000A5400222046611CCCB2E5490A542046D6
:10580000611CCCB2E2490A542046611CCCB2E0498A
:105810000A542046611CCCB2DD490A54DF480278A4
:105820002046611CCCB2DA490A54DC484278204652
:10583000611CCCB2D6490A54D84882782046611CF3
:10584000CCB2D3490A54D548C2782046611CCCB2A8
:10585000CF490A54D14802792046611CCCB2CC49C8
:105860000A54CE4842792046611CCCB2C8490A5439
:10587000CA4882792046611CCCB2C5490A54C7483F
:10588000C2792046611CCCB2C1490A54C348027A8D
:105890002046611CCCB2BE490A54C048427A204618
:1058A000611CCCB2BA490A54BC48827A2046611CB9
:1058B000CCB2B7490A54B948C27A2046611CCCB26E
:1058C000B3490A54B548027B2046611CCCB2B049AA
:1058D0000A54B248427B2046611CCCB2AC490A54FF
:1058E000AE48827B2046611CCCB2A9490A54AB4821
:1058F000C27B2046611CCCB2A5490A54A748027C51
:105900002046611CCCB2A2490A54A448427C2046DD
:10591000611CCCB29E490A54A048827C2046611C7E
:10592000CCB29B490A549D48C27C2046611CCCB233
:1059300097490A549948027D2046611CCCB294498B
:105940000A549648427D2046611CCCB290490A54C4
:105950009248827D2046611CCCB28D490A548F4802
:10596000C27D2046611CCCB289490A548B48027E14
:105970002046611CCCB286490A548848427E2146A2
:10598000601CC4B2824842548448827E2046611C16
:10599000CCB27F490A548148C27E2146601CC4B201
:1059A0007B4842547D48027F2046611CCCB2784936
:1059B0000A547A48427F2046611CCCB274490A548A
:1059C0007648827F2046611CCCB271490A547348E4
:1059D000C27F2046611CCCB26D490A546F4890F8D2
:1059E00020202046611CCCB269490A546B4890F8CB
:1059F00021202046611CCCB265490A54674890F8C2
:105A000022202046611CCCB261490A54634890F8B8
:105A100023202046611CCCB25D490A545F4890F8AF
:105A200024202046611CCCB259490A545B4890F8A6
:105A300025202046611CCCB255490A54574890F89D
:105A400026202046611CCCB251490A54534890F894
:105A500027202046611CCCB24D490A544F4890F88B
:105A600028202046611CCCB249490A544B4890F882
:105A700029202046611CCCB245490A54474890F879
:105A80002A202046611CCCB241490A54434890F870
:105A90002B202046611CCCB23D490A543F4890F867
:105AA0002C202046611CCCB239490A543B4890F85E
:105AB0002D202046611CCCB235490A54374890F855
:105AC0002E202046611CCCB231490A54334890F84C
:105AD0002F202046611CCCB22D490A542F4890F843
